:1000000066C07FC07EC07DC07CC07BC07AC079C026
:1000100078C077C076C075C074C073C04AC471C060
:1000200070C06FC06EC0BEC10FC10EC10DC10CC18A
:10003000ABC10AC109C108C107C106C105C104C1DC
:1000400003C102C101C100C1FFC090C1FDC0FCC01D
:10005000FBC0FAC0F9C0F8C0F7C0F6C0F5C0F4C0E4
:10006000F3C0F2C0F1C0F0C0EFC0EEC0EDC0ECC014
:10007000EBC0EAC0E9C0E8C0E7C0E6C0E5C0E4C044
:10008000E3C0E2C0E1C0E0C0DFC0DEC0DDC0DCC074
:10009000DBC0DAC0D9C0D8C058C1D6C048C1D4C0AE
:1000A000D3C032C120C1D0C010C1F5C0CDC0CCC0BA
:1000B000CBC0CAC0C9C0C8C0E0C0C6C0D2C0C5C0DD
:1000C000C3C0C2C0C1C0C0C0BFC0BEC0A7C0112491
:1000D0001FBECFE5D4E0DEBFCDBF12E0A0E6B1E0A9
:1000E000E4E0F2E102C005900D92AA35B107D9F71C
:1000F00013E0AAE5B2E001C01D92A338B107E1F711
:1001000080C37ECFFC016083718313820895CF93F7
:10011000DF93EC018B81882311F09A810AC08881DA
:1001200099819C01019688839983C901ADD3982F49
:1001300088E081508B83892F86958A839170892FDF
:100140009927DF91CF910895AF92BF92CF92DF921E
:10015000EF92FF920F931F93CF936C01EE24FF2435
:100160006623B9F081E0A82EB12C8701C62FC60105
:10017000CEDF882349F0C501002E02C0880F991FE9
:100180000A94E2F7E82AF92AC1500F5F1F4FCC23E7
:1001900071F7C701CF911F910F91FF90EF90DF9002
:1001A000CF90BF90AF900895CF92DF92EF92FF92E1
:1001B0000F931F936A01082F1127000F111F015879
:1001C0001D4FE62EFF24EE0CFF1CF801808191816B
:1001D0008E0D9F1D59D3F6018083F8018081918196
:1001E0008E0D9F1D019650D3F60181831F910F91B3
:1001F000FF90EF90DF90CF900895282FE62FFF27F4
:10020000E05AFE4F80819927AA27BB27FC01BB97A4
:10021000E435F105C8F4ED5EFF4F0994822F99276C
:100220002AE130E0829FF001839FF00D929FF00D54
:100230001124EC5EFC4F942F92959F708389891353
:10024000158A938B4F70448B0895E22FFF27EE0F92
:10025000FF1FEE0FFF1FEE0FFF1FE35AFD4F4683F8
:100260000895E22FFF27EE0FFF1FEE0FFF1FEE0F87
:10027000FF1FE35AFD4F4783089533278AE190E03B
:10028000289FF001299FF00D389FF00D1124EC5E9E
:10029000FC4F4387089533278AE190E0289FF001BF
:1002A000299FF00D389FF00D1124EC5EFC4F842F38
:1002B0009927002496958795079496958795079496
:1002C000982F802D818B928B089533278AE190E0BF
:1002D000289FF001299FF00D389FF00D1124EC5E4E
:1002E000FC4F4587089533278AE190E0289FF0016D
:1002F000299FF00D389FF00D1124EC5EFC4F842FE8
:10030000992781879287089533278AE190E0289F73
:10031000F001299FF00D389FF00D1124EC5EFC4F89
:10032000842F9927880F991F868B978B08953327E1
:100330008AE190E0289FF001299FF00D389FF00D91
:100340001124EC5EFC4F408B0895E22FFF27EE0F47
:10035000FF1FEE0FFF1FEE0FFF1FE35AFD4F842F0D
:100360009927982F882784839583089533278AE1D6
:1003700090E0289FF001299FF00D389FF00D112487
:10038000EC5EFC4F4487089533278AE190E0289F74
:10039000F001299FF00D389FF00D1124EC5EFC4F09
:1003A0001086089533278AE190E0289FF001299F65
:1003B000F00D389FF00D1124EC5EFC4F8681840F08
:1003C0008053848708957F928F929F92AF92BF92BD
:1003D000CF92DF92EF92FF920F931F93CF93DF9311
:1003E000CDB7DEB722970FB6F894DEBF0FBECDBFF4
:1003F00090911303992341F080915B02882309F4C3
:10040000CCC0815080935B02DD245E010894A11C66
:10041000B11C04E113E0FDE5EF2EF2E0FF2EF80140
:1004200080858823C9F083858823B1F4AE014F5FAE
:100430005F4FF80161858085B7DEF801818592857F
:10044000019681879287F501418169818D2DD5DEE5
:10045000F8018085882339F7F8018385882311F016
:1004600081508387F801268937892115310509F4E0
:10047000B9C0608D718D8485E82FFF27EE0FFF1FB7
:10048000E255FE4F0190F081E02DE61BF70B1E16A2
:100490001F060CF0B5C02E173F070CF4F9016E0FC4
:1004A0007F1FF801608F718FF80126853785620FF5
:1004B000731F8389482F5527A589EA2FFF27EF73DC
:1004C000F070E259FE4F8081992787FD9095489FF3
:1004D000F001499FF00D589FF00D1124CF01959523
:1004E000879595958795680F791FF70160837183CC
:1004F000F8018585992787FD9095280F391F268754
:100500003787F7019781F8018089282F332727FD46
:100510003095290F311D37FD70C02F3F310519F07F
:1005200014F02FEF30E0F701278324813581F801A3
:1005300081899289280F391FF0EE21303F0710F092
:1005400020E030E280E22030380710F420E030EE86
:10055000F70124833583F8018489A80FA58BD394F0
:1005600088E090E0E80EF91E065E1F4F93E09D15AF
:1005700008F055CF90E080917D02882321F08150D2
:1005800080937D0292E080917E02882309F4EFC07F
:10059000815080937E029061EAC084E080935B0288
:1005A00020915C022223C1F1992309F42DCFDD248F
:1005B000A4E1EA2EA3E0FA2E5701F70184818823F3
:1005C00091F5D3948AE190E0A80EB91EE80EF91EC9
:1005D00093E09D1590F780915C028F5F8F718093FF
:1005E0005C0212CFF8018485E82FFF27EE0FFF1F72
:1005F000E255FE4F6081718157CF20E030E08DCF12
:10060000F7FF4DCF88279927821B930BE817F9072F
:100610000CF045CFFC0143CF80917D038733F0F18F
:1006200020931303F1CE63E0C5018EDDCC249C2C16
:100630008C2C7C2C082F112700FD82C001FD7BC073
:1006400002FD70C0992039F0F7018581890D8683FC
:10065000CC2009F461C0CC20C9F0F2E0CF1609F437
:100660005DC081E0C81609F470C0F7E0CF1609F448
:1006700074C0F701C782C08611861286138616865B
:1006800017861586108A118A128A138A882009F41F
:1006900098CF472D682D8D2DB0DD93CF14E1A12E7D
:1006A00013E0B12E7501B3E0DB2E61E08EE793E03D
:1006B0004BDD8C0166E08EE793E046DDF701848335
:1006C000002311F5802FF70185838481882389F425
:1006D000DA948AE190E0E80EF91EA80EB91ED7FE62
:1006E000E4CF80917D038F5F80937D03909113030E
:1006F0005BCFE82FFF27EE0FFF1FE158FD4F668D00
:10070000778DC501FFDCE4CF64E08EE793E01CDD6C
:1007100083FFD9CF806FD7CFC7809DCF85E08093EF
:100720007E02A7CF64E0C5010FDD882E68E0C50119
:100730000BDD782E87CF64E0C50106DDC82E80CFA3
:1007400067E0C50101DD982E79CFF70184818430FF
:1007500051F085E080937D028CCF8EE180937E0204
:1007600080937D0286CF83E080937E02F9CF98B993
:1007700022960FB6F894DEBF0FBECDBFDF91CF91AA
:100780001F910F91FF90EF90DF90CF90BF90AF90AF
:100790009F908F907F900895EF92FF921F93CF9339
:1007A000DF93CDB7DEB724970FB6F894DEBF0FBE48
:1007B000CDBF60E070E0CE010196A4DC18E48FE7C5
:1007C000E82E82E0F82E6DE0CE010196BDDCF70147
:1007D000819391937F01115017FFF5CF60917F02B4
:1007E000709180028EE793E08DDC24960FB6F8942A
:1007F000DEBF0FBECDBFDF91CF911F91FF90EF9075
:100800000895CFE5D4E0DEBFCDBFF89445D080E8B1
:10081000809361008093610082E187B98FEF8AB98C
:1008200018B81092820310925B0210925C0281E071
:100830008093130310927D031092640210921C03A4
:1008400010926C02109236031092740210925003B0
:1008500010927C0210926A039FDF92E094BD95BDD6
:100860008EE387BD90936E007894809182038823F5
:10087000E1F380918203815080938203A4DD809113
:100880008203882391F3F5CFEAECE80FF9E0F91F32
:10089000C895802D912D0895A89584B7877F84BF32
:1008A0008091600088618093600080E080936000A8
:1008B00008951F920F920FB60F922F933F934F936D
:1008C0005F936F937F938F939F93EF93FF938091A9
:1008D0007C038BB9662781E0209156023091570244
:1008E000409158025091590257FD682750FD6827E2
:1008F00031FD682726FD6827220F331F441F551F2F
:10090000262B20935602309357024093580250935F
:10091000590280911103882331F4809182038F5F03
:100920008093820384EB815080931103662777279D
:10093000EDE5F2E053E08281938126812030B1F031
:10094000213079F0223029F0409156024F73405205
:1009500018C040EE248135812817390790F44FE103
:1009600010C0492F4695469540520BC0492F47FD70
:1009700003C04695405205C04F7746952FE1241B92
:10098000422F278126952F772402600D711D600D5F
:10099000711D20813181820F931F82839383515077
:1009A000389657FFC8CF705870937C03FF91EF9132
:1009B0009F918F917F916F915F914F913F912F9177
:1009C0000F900FBE0F901F90189577002A8405BBDB
:1009D000901840C36C500ED1413E4C081AB124A46B
:1009E00044993013678250600A53112C9E45BEE82B
:1009F000182BE3689C8DC2D13960C7F5E01F1C64D9
:100A00008884113CB2484E492D8926E8849F389449
:100A10008E92539E4A57B12B8D45B51497E9325E9D
:100A2000E80B83293140C6CC289A51636CAACDB813
:100A3000E1371027E5541DB9737A724FF2C93E03AE
:100A40000800001B0000A8B500809B2B00000002DE
:100A50000000209018000209002090004C020900BC
:100A6000259000540E09C02490004C0209002590E6
:100A700000540209C22490504C028905259060540C
:100A80000289C62490704C0289072590905C0E89DB
:100A9000C64460C27C04A70C4880D28404A98D4857
:100AA000883ECE48A0EA90042C4FE9B01A10028983
:100AB000D7249080510289582590904D0289D924DD
:100AC00090A0510289D8E590904D82EF74E634826F
:100AD000F07C263584F164663582F26CE63482C996
:100AE00084E63482C984263584C98C66358EC98CE7
:100AF000E6348CF8CCE7348CF8CC27358CF8CC670E
:100B0000358CF8CCE7348CF8CCE7348CF8CC27352E
:100B100088EDCCE73590EE285A03090308FF07015A
:100B2000090201900B3105A002F00008FF0903073C
:100B30000209020B31017005D0070202F80401001E
:100B4000090206050B3108FF02F00706020007162E
:100B50000A2500090308FF0701090006050B3D02ED
:100B6000F007060200072002F000090308FF070152
:100B70000902015006010B31070502FE00090201BE
:100B8000800B3D08C00208070202F00702020007BE
:100B9000160A3400090308FF02FC000300090308D9
:100BA000FF07010902060502FF0B3D07030B38078B
:100BB000030B3407030B3107030407000300090389
:100BC00008FF07010902060502FF0B3D07030B386A
:100BD00007030B3507030B31070304070003000964
:100BE0000308FF07010902060502FF0B3D07030B7F
:100BF0003807030B3607030B31070304070009030B
:100C000008FF0701090006050B3D02F00706020078
:100C100007060A2500090308FF02F00008C40900BE
:100C200006050B3D02F00706020007060A25000034
:100C3000006B0400200D2C23582300B4818044C095
:100C4000349006D2C03202608D401A0011006B044D
:100C5000D200002C2300803502009006806504003D
:100C60000000947F00000000000000000000000071
:100C70000038008B45628925961812039018C242ED
:100C80005800C2424A4809012120002B1D000000E3
:100C9000000000000000000000CB08116A8D48230E
:100CA0000DA481658408D00C421101D608A4816589
:100CB0008408B546200DA481658408B546208D348E
:100CC000D248036B0400200D2C2344803502401BC6
:100CD0000898C632420458239006D2C032823502A8
:100CE000CB0811201922006B040000000000000056
:100CF0000000000000A7D10020258486CC901212AD
:100D0000436CC80CA121258486CC9012124366C87E
:100D10000BC7CD0000446000480C20020340704423
:100D200020220082230224071001622302A487DC10
:100D300000C30D40040680C4002230000487D81090
:100D40001A1120318008101A1120B8E4B24B0F0399
:100D50000E8000911E80E4102102447E08101122B2
:100D60003B00C12133C406030EF2031100E9010068
:100D700000000028FE00000000008B0D112033222F
:100D800030101A8800488C081C1B1120312240703A
:100D9000B18586E08800B121342240664480C400D9
:100DA00000630DE73F2524869410165242621C8092
:100DB00094105A6689851555502905144E3CF9043E
:100DC00094525A8905072B0DE73F192483A0900CF4
:100DD000524258C8082921192483A09017C2E20062
:100DE000A49453506101630DE73F312483B0901206
:100DF0009241584480C6068008900CE73F2CA4849A
:100E000064901292E100844504C88B0800A30D1180
:100E1000203600C1110181D0905D72C1213BA487B1
:100E2000FC88001102080E992136006B1412000094
:100E3000800800C410441648030920010020020065
:100E4000000000B046014440200D10019006120041
:100E500000000000004B1400201510011008924003
:100E60000CC802590044802088C040064460200815
:100E7000000B140000000000000000000000004B08
:100E8000140020151001100892400C080241004483
:100E9000802088C0400644602008004319000000FC
:100EA000808C40044056004004880A0088004101BC
:100EB00044003B1900100182220244050000004A50
:100EC0003F00000000002319000000809800040586
:100ED0000000420258F800001B190000A0FC0300AB
:100EE000000000000000003B19809C101480A0103E
:100EF00015000A3E80B400A485A8880021110132A3
:100F00002202004319000A3F80AC0050F80144055A
:100F100080C20F2026B00600004319000000000028
:100F200000000000000000231480101008802C1026
:100F300007F240080042402000B2402081641102C4
:100F40005B14802C900B80189004A2401600D200F5
:100F50001007803C58E0006314C200110039200AD9
:100F600084012200A2401808034400E4803C1007DA
:100F7000C2400A003B147200900980401007B24042
:100F80001239E4924A2681C491440E009200005B1B
:100F900014000000000000000000000000631400C6
:100FA0000000803000C401000000200E0083140007
:100FB00020101001008400000000000000002B1D24
:100FC00000000086420041110182020084460404B0
:100FD0004223020405001B25001001F2220202191F
:100FE00001C888089017808C006484BC901100238D
:100FF00025001001022302022101088908101200B5
:10100000203022201018112024005B2511201F8081
:1010100008901511202B22403E0011202B22405613
:1010200044807C0022403E00B2220202F9100100FE
:1010300023258090880081810880C0880021018854
:10104000094400C44404880C2002444604888908EA
:1010500010191100A325420B2D34224050200220EC
:1010600028224050080D41010000000000A3294241
:101070000B2A3422405020022028224050004243B4
:1010800068A1854604080A4400044504080AA10131
:101090000B250000000000C8080000000000002B25
:1010A000210000000000000000000000002B1D00D7
:1010B00000186B911280B09018C2424A088D0290BD
:1010C00019C2424A880DC32D000000000000000034
:1010D000480CA1C5965B70D9A507032E0000480FE8
:1010E000408000F22302640722008203101C1120BA
:1010F0003F6407036E7EE905175A66B165165A66A6
:10110000898595575499E5951811203122406244FC
:1011100080C4002240624480F488008911010003E9
:101120002E124362480F89213D4418607E081089C1
:101130002131A487C4901E220C303F00FB2D0224D5
:1011400002844804486FC49E70D7EBC576C21E70F7
:1011500017EBE176C0DE6FD7EBC576BFDE6E17EB1F
:10116000E176BB1E6E87EBC576C4DE6E17EBF536F7
:101170003FA30D0000480C406800320300008901C5
:10118000C80B000000000000000000000080BD2629
:10119000B1CC007F4D4100480C0000000000000071
:1011A0000000002B21112025800890586229110190
:1011B000522202002911015652220090121160257C
:1011C000240200291101522202A4440400CFCCC001
:1011D0001101522202A444044886089012112019D9
:1011E00022404A4480948800C91001522202A4443B
:1011F00004488608901211A0990168468053220283
:04120000A4440400FE
:10120400306466696A6C6D7476777E2B3D00000CE1
:101214001925313C47515A626A70757A7D7E7F7E0A
:101224007D7A75706A625A51473C3125190C00F475
:10123400E7DBCFC4B9AFA69E96908B86838281826A
:1012440083868B90969EA6AFB9C4CFDBE7F4850066
:101254008D0096009F00A800B200BD00C800D40015
:10126400E100EE00FC000B011B012C013E015101C9
:1012740065017A019101A901C201DD01F901170299
:10128400370259027D02A302CB02F5022203520364
:101294008503BA03F3032F046F04B204FA0446056A
:1012A4009605EB054506A5060A077507E6075F08D8
:1012B400DE086509F4098C0A2C0BD60B8B0C4A0D3D
:1012C400140EEA0ECD0FBE10BD11CB12E913181582
:1012D4005916AD171619941A281CD51D9B1F7C216D
:1012E4007A239625D327312AB32C5B2F2C32283529
:0A12F4005138AB3B373F010000000A
:00000001FF
